{
  "_format": "hh-sol-artifact-1",
  "contractName": "NOPSocialPool",
  "sourceName": "contracts/NOPSocialPool.sol",
  "abi": [
    {
      "anonymous": false,
      "inputs": [
        {
          "indexed": true,
          "internalType": "address",
          "name": "user",
          "type": "address"
        },
        {
          "indexed": false,
          "internalType": "uint256",
          "name": "amount",
          "type": "uint256"
        },
        {
          "indexed": false,
          "internalType": "uint256",
          "name": "timestamp",
          "type": "uint256"
        }
      ],
      "name": "NewPosition",
      "type": "event"
    },
    {
      "inputs": [
        {
          "internalType": "address",
          "name": "user",
          "type": "address"
        }
      ],
      "name": "getPositions",
      "outputs": [
        {
          "components": [
            {
              "internalType": "address",
              "name": "owner",
              "type": "address"
            },
            {
              "internalType": "uint256",
              "name": "amount",
              "type": "uint256"
            },
            {
              "internalType": "uint256",
              "name": "timestamp",
              "type": "uint256"
            }
          ],
          "internalType": "struct NOPSocialPool.Position[]",
          "name": "",
          "type": "tuple[]"
        }
      ],
      "stateMutability": "view",
      "type": "function"
    },
    {
      "inputs": [
        {
          "internalType": "uint256",
          "name": "amount",
          "type": "uint256"
        }
      ],
      "name": "openPosition",
      "outputs": [],
      "stateMutability": "nonpayable",
      "type": "function"
    },
    {
      "inputs": [
        {
          "internalType": "address",
          "name": "",
          "type": "address"
        },
        {
          "internalType": "uint256",
          "name": "",
          "type": "uint256"
        }
      ],
      "name": "positions",
      "outputs": [
        {
          "internalType": "address",
          "name": "owner",
          "type": "address"
        },
        {
          "internalType": "uint256",
          "name": "amount",
          "type": "uint256"
        },
        {
          "internalType": "uint256",
          "name": "timestamp",
          "type": "uint256"
        }
      ],
      "stateMutability": "view",
      "type": "function"
    }
  ],
  "bytecode": "0x608060405234801561001057600080fd5b50610752806100206000396000f3fe608060405234801561001057600080fd5b50600436106100415760003560e01c80633eeb530e1461004657806399ff820314610076578063c1be667714610092575b600080fd5b610060600480360381019061005b9190610420565b6100c4565b60405161006d9190610566565b60405180910390f35b610090600480360381019061008b91906105b4565b6101cb565b005b6100ac60048036038101906100a791906105e1565b610356565b6040516100bb9392919061063f565b60405180910390f35b60606000808373ffffffffffffffffffffffffffffffffffffffff1673ffffffffffffffffffffffffffffffffffffffff168152602001908152602001600020805480602002602001604051908101604052809291908181526020016000905b828210156101c057838290600052602060002090600302016040518060600160405290816000820160009054906101000a900473ffffffffffffffffffffffffffffffffffffffff1673ffffffffffffffffffffffffffffffffffffffff1673ffffffffffffffffffffffffffffffffffffffff1681526020016001820154815260200160028201548152505081526020019060010190610124565b505050509050919050565b6000811161020e576040517f08c379a0000000000000000000000000000000000000000000000000000000008152600401610205906106d3565b60405180910390fd5b6000803373ffffffffffffffffffffffffffffffffffffffff1673ffffffffffffffffffffffffffffffffffffffff16815260200190815260200160002060405180606001604052803373ffffffffffffffffffffffffffffffffffffffff16815260200183815260200142815250908060018154018082558091505060019003906000526020600020906003020160009091909190915060008201518160000160006101000a81548173ffffffffffffffffffffffffffffffffffffffff021916908373ffffffffffffffffffffffffffffffffffffffff160217905550602082015181600101556040820151816002015550503373ffffffffffffffffffffffffffffffffffffffff167fae7f27027160a91ef347208456b8587b97ef5efb1870c419fda7bcc2885d56a1824260405161034b9291906106f3565b60405180910390a250565b6000602052816000526040600020818154811061037257600080fd5b9060005260206000209060030201600091509150508060000160009054906101000a900473ffffffffffffffffffffffffffffffffffffffff16908060010154908060020154905083565b600080fd5b600073ffffffffffffffffffffffffffffffffffffffff82169050919050565b60006103ed826103c2565b9050919050565b6103fd816103e2565b811461040857600080fd5b50565b60008135905061041a816103f4565b92915050565b600060208284031215610436576104356103bd565b5b60006104448482850161040b565b91505092915050565b600081519050919050565b600082825260208201905092915050565b6000819050602082019050919050565b610482816103e2565b82525050565b6000819050919050565b61049b81610488565b82525050565b6060820160008201516104b76000850182610479565b5060208201516104ca6020850182610492565b5060408201516104dd6040850182610492565b50505050565b60006104ef83836104a1565b60608301905092915050565b6000602082019050919050565b60006105138261044d565b61051d8185610458565b935061052883610469565b8060005b8381101561055957815161054088826104e3565b975061054b836104fb565b92505060018101905061052c565b5085935050505092915050565b600060208201905081810360008301526105808184610508565b905092915050565b61059181610488565b811461059c57600080fd5b50565b6000813590506105ae81610588565b92915050565b6000602082840312156105ca576105c96103bd565b5b60006105d88482850161059f565b91505092915050565b600080604083850312156105f8576105f76103bd565b5b60006106068582860161040b565b92505060206106178582860161059f565b9150509250929050565b61062a816103e2565b82525050565b61063981610488565b82525050565b60006060820190506106546000830186610621565b6106616020830185610630565b61066e6040830184610630565b949350505050565b600082825260208201905092915050565b7f416d6f756e74206d757374206265203e20300000000000000000000000000000600082015250565b60006106bd601283610676565b91506106c882610687565b602082019050919050565b600060208201905081810360008301526106ec816106b0565b9050919050565b60006040820190506107086000830185610630565b6107156020830184610630565b939250505056fea264697066735822122026773f38f92e83bccda52258b3dea294e76907b2a52c1ead57264e6d39e6f49064736f6c63430008140033",
  "linkReferences": {},
  "deployedLinkReferences": {}
}