{
  "_format": "hh-sol-artifact-1",
  "contractName": "NOPSocialPool",
  "sourceName": "contracts/NOPSocialPool.sol",
  "abi": [
    {
      "inputs": [
        {
          "internalType": "address",
          "name": "_nopToken",
          "type": "address"
        },
        {
          "internalType": "address",
          "name": "_treasury",
          "type": "address"
        }
      ],
      "stateMutability": "nonpayable",
      "type": "constructor"
    },
    {
      "inputs": [],
      "name": "AmountZero",
      "type": "error"
    },
    {
      "inputs": [],
      "name": "InsufficientPosition",
      "type": "error"
    },
    {
      "inputs": [],
      "name": "InvalidAddress",
      "type": "error"
    },
    {
      "inputs": [
        {
          "internalType": "address",
          "name": "owner",
          "type": "address"
        }
      ],
      "name": "OwnableInvalidOwner",
      "type": "error"
    },
    {
      "inputs": [
        {
          "internalType": "address",
          "name": "account",
          "type": "address"
        }
      ],
      "name": "OwnableUnauthorizedAccount",
      "type": "error"
    },
    {
      "inputs": [],
      "name": "PoolDisabled",
      "type": "error"
    },
    {
      "anonymous": false,
      "inputs": [
        {
          "indexed": true,
          "internalType": "address",
          "name": "previousOwner",
          "type": "address"
        },
        {
          "indexed": true,
          "internalType": "address",
          "name": "newOwner",
          "type": "address"
        }
      ],
      "name": "OwnershipTransferred",
      "type": "event"
    },
    {
      "anonymous": false,
      "inputs": [
        {
          "indexed": true,
          "internalType": "address",
          "name": "user",
          "type": "address"
        },
        {
          "indexed": true,
          "internalType": "uint256",
          "name": "postId",
          "type": "uint256"
        },
        {
          "indexed": false,
          "internalType": "uint256",
          "name": "netAmount",
          "type": "uint256"
        },
        {
          "indexed": false,
          "internalType": "uint256",
          "name": "feeAmount",
          "type": "uint256"
        }
      ],
      "name": "PositionDecreased",
      "type": "event"
    },
    {
      "anonymous": false,
      "inputs": [
        {
          "indexed": true,
          "internalType": "address",
          "name": "user",
          "type": "address"
        },
        {
          "indexed": true,
          "internalType": "uint256",
          "name": "postId",
          "type": "uint256"
        },
        {
          "indexed": false,
          "internalType": "uint256",
          "name": "netAmount",
          "type": "uint256"
        },
        {
          "indexed": false,
          "internalType": "uint256",
          "name": "feeAmount",
          "type": "uint256"
        }
      ],
      "name": "PositionIncreased",
      "type": "event"
    },
    {
      "anonymous": false,
      "inputs": [
        {
          "indexed": true,
          "internalType": "uint256",
          "name": "postId",
          "type": "uint256"
        },
        {
          "indexed": false,
          "internalType": "bool",
          "name": "enabled",
          "type": "bool"
        }
      ],
      "name": "PostSet",
      "type": "event"
    },
    {
      "anonymous": false,
      "inputs": [
        {
          "indexed": true,
          "internalType": "address",
          "name": "oldTreasury",
          "type": "address"
        },
        {
          "indexed": true,
          "internalType": "address",
          "name": "newTreasury",
          "type": "address"
        }
      ],
      "name": "TreasuryUpdated",
      "type": "event"
    },
    {
      "inputs": [],
      "name": "FEE_BP",
      "outputs": [
        {
          "internalType": "uint256",
          "name": "",
          "type": "uint256"
        }
      ],
      "stateMutability": "view",
      "type": "function"
    },
    {
      "inputs": [
        {
          "internalType": "uint256",
          "name": "postId",
          "type": "uint256"
        },
        {
          "internalType": "uint256",
          "name": "amount",
          "type": "uint256"
        }
      ],
      "name": "depositNOP",
      "outputs": [],
      "stateMutability": "nonpayable",
      "type": "function"
    },
    {
      "inputs": [
        {
          "internalType": "address",
          "name": "user",
          "type": "address"
        },
        {
          "internalType": "uint256",
          "name": "postId",
          "type": "uint256"
        }
      ],
      "name": "getPosition",
      "outputs": [
        {
          "internalType": "uint256",
          "name": "",
          "type": "uint256"
        }
      ],
      "stateMutability": "view",
      "type": "function"
    },
    {
      "inputs": [],
      "name": "nopToken",
      "outputs": [
        {
          "internalType": "contract IERC20",
          "name": "",
          "type": "address"
        }
      ],
      "stateMutability": "view",
      "type": "function"
    },
    {
      "inputs": [],
      "name": "owner",
      "outputs": [
        {
          "internalType": "address",
          "name": "",
          "type": "address"
        }
      ],
      "stateMutability": "view",
      "type": "function"
    },
    {
      "inputs": [
        {
          "internalType": "uint256",
          "name": "",
          "type": "uint256"
        },
        {
          "internalType": "address",
          "name": "",
          "type": "address"
        }
      ],
      "name": "positions",
      "outputs": [
        {
          "internalType": "uint256",
          "name": "",
          "type": "uint256"
        }
      ],
      "stateMutability": "view",
      "type": "function"
    },
    {
      "inputs": [
        {
          "internalType": "uint256",
          "name": "",
          "type": "uint256"
        }
      ],
      "name": "postEnabled",
      "outputs": [
        {
          "internalType": "bool",
          "name": "",
          "type": "bool"
        }
      ],
      "stateMutability": "view",
      "type": "function"
    },
    {
      "inputs": [],
      "name": "renounceOwnership",
      "outputs": [],
      "stateMutability": "nonpayable",
      "type": "function"
    },
    {
      "inputs": [
        {
          "internalType": "uint256",
          "name": "postId",
          "type": "uint256"
        },
        {
          "internalType": "bool",
          "name": "enabled",
          "type": "bool"
        }
      ],
      "name": "setPostEnabled",
      "outputs": [],
      "stateMutability": "nonpayable",
      "type": "function"
    },
    {
      "inputs": [
        {
          "internalType": "address",
          "name": "_treasury",
          "type": "address"
        }
      ],
      "name": "setTreasury",
      "outputs": [],
      "stateMutability": "nonpayable",
      "type": "function"
    },
    {
      "inputs": [
        {
          "internalType": "address",
          "name": "newOwner",
          "type": "address"
        }
      ],
      "name": "transferOwnership",
      "outputs": [],
      "stateMutability": "nonpayable",
      "type": "function"
    },
    {
      "inputs": [],
      "name": "treasury",
      "outputs": [
        {
          "internalType": "address",
          "name": "",
          "type": "address"
        }
      ],
      "stateMutability": "view",
      "type": "function"
    },
    {
      "inputs": [
        {
          "internalType": "uint256",
          "name": "postId",
          "type": "uint256"
        },
        {
          "internalType": "uint256",
          "name": "amount",
          "type": "uint256"
        }
      ],
      "name": "withdrawNOP",
      "outputs": [],
      "stateMutability": "nonpayable",
      "type": "function"
    }
  ],
  "bytecode": "0x60a06040523480156200001157600080fd5b50604051620018953803806200189583398181016040528101906200003791906200030a565b33600073ffffffffffffffffffffffffffffffffffffffff168173ffffffffffffffffffffffffffffffffffffffff1603620000ad5760006040517f1e4fbdf7000000000000000000000000000000000000000000000000000000008152600401620000a4919062000362565b60405180910390fd5b620000be81620001dc60201b60201c565b50600073ffffffffffffffffffffffffffffffffffffffff168273ffffffffffffffffffffffffffffffffffffffff161480620001275750600073ffffffffffffffffffffffffffffffffffffffff168173ffffffffffffffffffffffffffffffffffffffff16145b156200015f576040517fe6c4247b00000000000000000000000000000000000000000000000000000000815260040160405180910390fd5b8173ffffffffffffffffffffffffffffffffffffffff1660808173ffffffffffffffffffffffffffffffffffffffff168152505080600160006101000a81548173ffffffffffffffffffffffffffffffffffffffff021916908373ffffffffffffffffffffffffffffffffffffffff16021790555050506200037f565b60008060009054906101000a900473ffffffffffffffffffffffffffffffffffffffff169050816000806101000a81548173ffffffffffffffffffffffffffffffffffffffff021916908373ffffffffffffffffffffffffffffffffffffffff1602179055508173ffffffffffffffffffffffffffffffffffffffff168173ffffffffffffffffffffffffffffffffffffffff167f8be0079c531659141344cd1fd0a4f28419497f9722a3daafe3b4186f6b6457e060405160405180910390a35050565b600080fd5b600073ffffffffffffffffffffffffffffffffffffffff82169050919050565b6000620002d282620002a5565b9050919050565b620002e481620002c5565b8114620002f057600080fd5b50565b6000815190506200030481620002d9565b92915050565b60008060408385031215620003245762000323620002a0565b5b60006200033485828601620002f3565b92505060206200034785828601620002f3565b9150509250929050565b6200035c81620002c5565b82525050565b600060208201905062000379600083018462000351565b92915050565b6080516114de620003b760003960008181610425015281816105120152818161073201528181610a930152610b7e01526114de6000f3fe608060405234801561001057600080fd5b50600436106100cf5760003560e01c80638da5cb5b1161008c578063e684d71811610066578063e684d718146101ee578063f0f442601461021e578063f2fde38b1461023a578063fdba520014610256576100cf565b80638da5cb5b146101945780639ed4e6bf146101b2578063af831768146101d0576100cf565b80633adbb5af146100d45780634915c78f1461010457806361d027b314610120578063682ae87f1461013e578063715018a61461015a578063834c996814610164575b600080fd5b6100ee60048036038101906100e99190610ec5565b610272565b6040516100fb9190610f14565b60405180910390f35b61011e60048036038101906101199190610f67565b6102cd565b005b61012861033c565b6040516101359190610fb6565b60405180910390f35b61015860048036038101906101539190610fd1565b610362565b005b6101626106d3565b005b61017e60048036038101906101799190611011565b6106e7565b60405161018b919061104d565b60405180910390f35b61019c610707565b6040516101a99190610fb6565b60405180910390f35b6101ba610730565b6040516101c791906110c7565b60405180910390f35b6101d8610754565b6040516101e59190610f14565b60405180910390f35b610208600480360381019061020391906110e2565b610759565b6040516102159190610f14565b60405180910390f35b61023860048036038101906102339190611122565b61077e565b005b610254600480360381019061024f9190611122565b6108b2565b005b610270600480360381019061026b9190610fd1565b610938565b005b60006002600083815260200190815260200160002060008473ffffffffffffffffffffffffffffffffffffffff1673ffffffffffffffffffffffffffffffffffffffff16815260200190815260200160002054905092915050565b6102d5610cd9565b806003600084815260200190815260200160002060006101000a81548160ff021916908315150217905550817f8fab1637549dd179f3e75497bb3ac52124656854b3b9418d68d0a196ca12e7e282604051610330919061104d565b60405180910390a25050565b600160009054906101000a900473ffffffffffffffffffffffffffffffffffffffff1681565b6003600083815260200190815260200160002060009054906101000a900460ff166103b9576040517f19d5b29400000000000000000000000000000000000000000000000000000000815260040160405180910390fd5b600081036103f3576040517fcbca5aa200000000000000000000000000000000000000000000000000000000815260040160405180910390fd5b6000612710606483610405919061117e565b61040f91906111ef565b90506000818361041f9190611220565b905060007f000000000000000000000000000000000000000000000000000000000000000073ffffffffffffffffffffffffffffffffffffffff166323b872dd3330876040518463ffffffff1660e01b815260040161048093929190611254565b6020604051808303816000875af115801561049f573d6000803e3d6000fd5b505050506040513d601f19601f820116820180604052508101906104c391906112a0565b905080610505576040517f08c379a00000000000000000000000000000000000000000000000000000000081526004016104fc9061132a565b60405180910390fd5b60008311156106145760007f000000000000000000000000000000000000000000000000000000000000000073ffffffffffffffffffffffffffffffffffffffff1663a9059cbb600160009054906101000a900473ffffffffffffffffffffffffffffffffffffffff16866040518363ffffffff1660e01b815260040161058d92919061134a565b6020604051808303816000875af11580156105ac573d6000803e3d6000fd5b505050506040513d601f19601f820116820180604052508101906105d091906112a0565b905080610612576040517f08c379a0000000000000000000000000000000000000000000000000000000008152600401610609906113bf565b60405180910390fd5b505b816002600087815260200190815260200160002060003373ffffffffffffffffffffffffffffffffffffffff1673ffffffffffffffffffffffffffffffffffffffff168152602001908152602001600020600082825461067491906113df565b92505081905550843373ffffffffffffffffffffffffffffffffffffffff167f673e472cd732d3288c086ad7d57942b327621ec34ae765dfa0d0069c9fe1006484866040516106c4929190611413565b60405180910390a35050505050565b6106db610cd9565b6106e56000610d60565b565b60036020528060005260406000206000915054906101000a900460ff1681565b60008060009054906101000a900473ffffffffffffffffffffffffffffffffffffffff16905090565b7f000000000000000000000000000000000000000000000000000000000000000081565b606481565b6002602052816000526040600020602052806000526040600020600091509150505481565b610786610cd9565b600073ffffffffffffffffffffffffffffffffffffffff168173ffffffffffffffffffffffffffffffffffffffff16036107ec576040517fe6c4247b00000000000000000000000000000000000000000000000000000000815260040160405180910390fd5b6000600160009054906101000a900473ffffffffffffffffffffffffffffffffffffffff16905081600160006101000a81548173ffffffffffffffffffffffffffffffffffffffff021916908373ffffffffffffffffffffffffffffffffffffffff1602179055508173ffffffffffffffffffffffffffffffffffffffff168173ffffffffffffffffffffffffffffffffffffffff167f4ab5be82436d353e61ca18726e984e561f5c1cc7c6d38b29d2553c790434705a60405160405180910390a35050565b6108ba610cd9565b600073ffffffffffffffffffffffffffffffffffffffff168173ffffffffffffffffffffffffffffffffffffffff160361092c5760006040517f1e4fbdf70000000000000000000000000000000000000000000000000000000081526004016109239190610fb6565b60405180910390fd5b61093581610d60565b50565b60006002600084815260200190815260200160002060003373ffffffffffffffffffffffffffffffffffffffff1673ffffffffffffffffffffffffffffffffffffffff168152602001908152602001600020549050600082036109c7576040517fcbca5aa200000000000000000000000000000000000000000000000000000000815260040160405180910390fd5b80821115610a01576040517f6513885200000000000000000000000000000000000000000000000000000000815260040160405180910390fd5b6000612710606484610a13919061117e565b610a1d91906111ef565b905060008184610a2d9190611220565b90508383610a3b9190611220565b6002600087815260200190815260200160002060003373ffffffffffffffffffffffffffffffffffffffff1673ffffffffffffffffffffffffffffffffffffffff1681526020019081526020016000208190555060007f000000000000000000000000000000000000000000000000000000000000000073ffffffffffffffffffffffffffffffffffffffff1663a9059cbb33846040518363ffffffff1660e01b8152600401610aec92919061134a565b6020604051808303816000875af1158015610b0b573d6000803e3d6000fd5b505050506040513d601f19601f82011682018060405250810190610b2f91906112a0565b905080610b71576040517f08c379a0000000000000000000000000000000000000000000000000000000008152600401610b6890611488565b60405180910390fd5b6000831115610c805760007f000000000000000000000000000000000000000000000000000000000000000073ffffffffffffffffffffffffffffffffffffffff1663a9059cbb600160009054906101000a900473ffffffffffffffffffffffffffffffffffffffff16866040518363ffffffff1660e01b8152600401610bf992919061134a565b6020604051808303816000875af1158015610c18573d6000803e3d6000fd5b505050506040513d601f19601f82011682018060405250810190610c3c91906112a0565b905080610c7e576040517f08c379a0000000000000000000000000000000000000000000000000000000008152600401610c75906113bf565b60405180910390fd5b505b853373ffffffffffffffffffffffffffffffffffffffff167f6977f21fcaeabbe9eaa2f4911bd7ae14d0ddff91d653e7b5930deff81cb5bb918486604051610cc9929190611413565b60405180910390a3505050505050565b610ce1610e24565b73ffffffffffffffffffffffffffffffffffffffff16610cff610707565b73ffffffffffffffffffffffffffffffffffffffff1614610d5e57610d22610e24565b6040517f118cdaa7000000000000000000000000000000000000000000000000000000008152600401610d559190610fb6565b60405180910390fd5b565b60008060009054906101000a900473ffffffffffffffffffffffffffffffffffffffff169050816000806101000a81548173ffffffffffffffffffffffffffffffffffffffff021916908373ffffffffffffffffffffffffffffffffffffffff1602179055508173ffffffffffffffffffffffffffffffffffffffff168173ffffffffffffffffffffffffffffffffffffffff167f8be0079c531659141344cd1fd0a4f28419497f9722a3daafe3b4186f6b6457e060405160405180910390a35050565b600033905090565b600080fd5b600073ffffffffffffffffffffffffffffffffffffffff82169050919050565b6000610e5c82610e31565b9050919050565b610e6c81610e51565b8114610e7757600080fd5b50565b600081359050610e8981610e63565b92915050565b6000819050919050565b610ea281610e8f565b8114610ead57600080fd5b50565b600081359050610ebf81610e99565b92915050565b60008060408385031215610edc57610edb610e2c565b5b6000610eea85828601610e7a565b9250506020610efb85828601610eb0565b9150509250929050565b610f0e81610e8f565b82525050565b6000602082019050610f296000830184610f05565b92915050565b60008115159050919050565b610f4481610f2f565b8114610f4f57600080fd5b50565b600081359050610f6181610f3b565b92915050565b60008060408385031215610f7e57610f7d610e2c565b5b6000610f8c85828601610eb0565b9250506020610f9d85828601610f52565b9150509250929050565b610fb081610e51565b82525050565b6000602082019050610fcb6000830184610fa7565b92915050565b60008060408385031215610fe857610fe7610e2c565b5b6000610ff685828601610eb0565b925050602061100785828601610eb0565b9150509250929050565b60006020828403121561102757611026610e2c565b5b600061103584828501610eb0565b91505092915050565b61104781610f2f565b82525050565b6000602082019050611062600083018461103e565b92915050565b6000819050919050565b600061108d61108861108384610e31565b611068565b610e31565b9050919050565b600061109f82611072565b9050919050565b60006110b182611094565b9050919050565b6110c1816110a6565b82525050565b60006020820190506110dc60008301846110b8565b92915050565b600080604083850312156110f9576110f8610e2c565b5b600061110785828601610eb0565b925050602061111885828601610e7a565b9150509250929050565b60006020828403121561113857611137610e2c565b5b600061114684828501610e7a565b91505092915050565b7f4e487b7100000000000000000000000000000000000000000000000000000000600052601160045260246000fd5b600061118982610e8f565b915061119483610e8f565b92508282026111a281610e8f565b915082820484148315176111b9576111b861114f565b5b5092915050565b7f4e487b7100000000000000000000000000000000000000000000000000000000600052601260045260246000fd5b60006111fa82610e8f565b915061120583610e8f565b925082611215576112146111c0565b5b828204905092915050565b600061122b82610e8f565b915061123683610e8f565b925082820390508181111561124e5761124d61114f565b5b92915050565b60006060820190506112696000830186610fa7565b6112766020830185610fa7565b6112836040830184610f05565b949350505050565b60008151905061129a81610f3b565b92915050565b6000602082840312156112b6576112b5610e2c565b5b60006112c48482850161128b565b91505092915050565b600082825260208201905092915050565b7f7472616e7366657246726f6d206661696c656400000000000000000000000000600082015250565b60006113146013836112cd565b915061131f826112de565b602082019050919050565b6000602082019050818103600083015261134381611307565b9050919050565b600060408201905061135f6000830185610fa7565b61136c6020830184610f05565b9392505050565b7f666565207472616e73666572206661696c656400000000000000000000000000600082015250565b60006113a96013836112cd565b91506113b482611373565b602082019050919050565b600060208201905081810360008301526113d88161139c565b9050919050565b60006113ea82610e8f565b91506113f583610e8f565b925082820190508082111561140d5761140c61114f565b5b92915050565b60006040820190506114286000830185610f05565b6114356020830184610f05565b9392505050565b7f7472616e73666572206661696c65640000000000000000000000000000000000600082015250565b6000611472600f836112cd565b915061147d8261143c565b602082019050919050565b600060208201905081810360008301526114a181611465565b905091905056fea264697066735822122044703003a9b3e18a865f9f817a16420dff0820005dc574513faff9065c95a21c64736f6c63430008140033",
  "linkReferences": {},
  "deployedLinkReferences": {}
}